:100000000C942A000C943C000C943C000C94480086
:100010000C943C000C943C000C943C000C943C0070
:100020000C943C000C943C000C943C000C943C0060
:100030000C943C000C943C000C943C000C943C0050
:100040000C943C000C943C000C943C000C943C0040
:100050000C943C0011241FBECFE5D4E0DEBFCDBF21
:1000600011E0A0E6B0E001C01D92AA31B107E1F7AE
:100070000E943E000C944D010C9400000E9431013E
:100080000E946D000E944301A8950E94EE00FCCFE3
:100090001F920F920FB60F9211242F933F934F93FD
:1000A0005F936F937F938F939F93AF93BF93EF93E0
:1000B000FF9378940E940B01FF91EF91BF91AF9154
:1000C0009F918F917F916F915F914F913F912F9170
:1000D0000F900FBE0F901F901895E0E6F0E085E8B6
:1000E00090E08193919320E0EE39F207D1F7EEE9A9
:1000F000F0E0282F892F2083818313821282349687
:1001000091E0EA31F907B9F708950895AC010FB607
:1001100007FE0CC0F89421E00AC031961296EF3128
:10012000F10549F42223B1F07894089520E0A0E687
:10013000B0E0E0E0F0E08D919C91119785589040FF
:1001400061F7EE0FFF1FE05AFF4F518340832223D8
:1001500009F078940895CF93DF93AC010FB607FCB4
:1001600002C020E002C0F89421E0CEE9D0E0DE0138
:10017000E0E0F0E08D919C9111978417950761F470
:10018000EE0FFF1FEE0FFF1FE256FF4F73836283D8
:10019000222309F178941FC031961496EF31F105AE
:1001A00049F7E0E0F0E0888199818558904071F44A
:1001B000EE0FFF1FEE0FFF1FE256FF4F51834083EC
:1001C00073836283222339F0789405C03196249694
:1001D000EF31F10541F7DF91CF910895F894209127
:1001E00060003091610080E02538380711F4789480
:1001F0000895E0E6F0E0828193818193919380E01D
:10020000EC39F807C1F785E890E091838083789412
:10021000F901099508950F931F93CF93DF93CEE9CA
:10022000D0E005E810E08881998120E085389207C8
:1002300071F02A813B812130310529F02150304075
:100240003B832A8304C00E94860019830883249676
:1002500081E0CA31D80739F7DF91CF911F910F9113
:10026000089583E389B910BC1BB888E18AB986E890
:1002700080BD8FEF8BBB8ABB89B7826089BF83B794
:10028000846083BF08958CE085BD14BC8DE783BD79
:0E02900089B7806889BF78940895F894FFCFED
:00000001FF
